{
  "contractName": "Color",
  "abi": [
    {
      "inputs": [],
      "stateMutability": "nonpayable",
      "type": "constructor"
    },
    {
      "anonymous": false,
      "inputs": [
        {
          "indexed": true,
          "internalType": "address",
          "name": "owner",
          "type": "address"
        },
        {
          "indexed": true,
          "internalType": "address",
          "name": "approved",
          "type": "address"
        },
        {
          "indexed": true,
          "internalType": "uint256",
          "name": "tokenId",
          "type": "uint256"
        }
      ],
      "name": "Approval",
      "type": "event"
    },
    {
      "anonymous": false,
      "inputs": [
        {
          "indexed": true,
          "internalType": "address",
          "name": "owner",
          "type": "address"
        },
        {
          "indexed": true,
          "internalType": "address",
          "name": "operator",
          "type": "address"
        },
        {
          "indexed": false,
          "internalType": "bool",
          "name": "approved",
          "type": "bool"
        }
      ],
      "name": "ApprovalForAll",
      "type": "event"
    },
    {
      "anonymous": false,
      "inputs": [
        {
          "indexed": true,
          "internalType": "address",
          "name": "previousOwner",
          "type": "address"
        },
        {
          "indexed": true,
          "internalType": "address",
          "name": "newOwner",
          "type": "address"
        }
      ],
      "name": "OwnershipTransferred",
      "type": "event"
    },
    {
      "anonymous": false,
      "inputs": [
        {
          "indexed": true,
          "internalType": "address",
          "name": "from",
          "type": "address"
        },
        {
          "indexed": true,
          "internalType": "address",
          "name": "to",
          "type": "address"
        },
        {
          "indexed": true,
          "internalType": "uint256",
          "name": "tokenId",
          "type": "uint256"
        }
      ],
      "name": "Transfer",
      "type": "event"
    },
    {
      "inputs": [
        {
          "internalType": "address",
          "name": "to",
          "type": "address"
        },
        {
          "internalType": "uint256",
          "name": "tokenId",
          "type": "uint256"
        }
      ],
      "name": "approve",
      "outputs": [],
      "stateMutability": "nonpayable",
      "type": "function"
    },
    {
      "inputs": [
        {
          "internalType": "address",
          "name": "owner",
          "type": "address"
        }
      ],
      "name": "balanceOf",
      "outputs": [
        {
          "internalType": "uint256",
          "name": "",
          "type": "uint256"
        }
      ],
      "stateMutability": "view",
      "type": "function",
      "constant": true
    },
    {
      "inputs": [
        {
          "internalType": "uint256",
          "name": "",
          "type": "uint256"
        }
      ],
      "name": "colors",
      "outputs": [
        {
          "internalType": "string",
          "name": "",
          "type": "string"
        }
      ],
      "stateMutability": "view",
      "type": "function",
      "constant": true
    },
    {
      "inputs": [
        {
          "internalType": "uint256",
          "name": "tokenId",
          "type": "uint256"
        }
      ],
      "name": "getApproved",
      "outputs": [
        {
          "internalType": "address",
          "name": "",
          "type": "address"
        }
      ],
      "stateMutability": "view",
      "type": "function",
      "constant": true
    },
    {
      "inputs": [
        {
          "internalType": "address",
          "name": "owner",
          "type": "address"
        },
        {
          "internalType": "address",
          "name": "operator",
          "type": "address"
        }
      ],
      "name": "isApprovedForAll",
      "outputs": [
        {
          "internalType": "bool",
          "name": "",
          "type": "bool"
        }
      ],
      "stateMutability": "view",
      "type": "function",
      "constant": true
    },
    {
      "inputs": [],
      "name": "name",
      "outputs": [
        {
          "internalType": "string",
          "name": "",
          "type": "string"
        }
      ],
      "stateMutability": "view",
      "type": "function",
      "constant": true
    },
    {
      "inputs": [],
      "name": "owner",
      "outputs": [
        {
          "internalType": "address",
          "name": "",
          "type": "address"
        }
      ],
      "stateMutability": "view",
      "type": "function",
      "constant": true
    },
    {
      "inputs": [
        {
          "internalType": "uint256",
          "name": "tokenId",
          "type": "uint256"
        }
      ],
      "name": "ownerOf",
      "outputs": [
        {
          "internalType": "address",
          "name": "",
          "type": "address"
        }
      ],
      "stateMutability": "view",
      "type": "function",
      "constant": true
    },
    {
      "inputs": [],
      "name": "renounceOwnership",
      "outputs": [],
      "stateMutability": "nonpayable",
      "type": "function"
    },
    {
      "inputs": [
        {
          "internalType": "address",
          "name": "from",
          "type": "address"
        },
        {
          "internalType": "address",
          "name": "to",
          "type": "address"
        },
        {
          "internalType": "uint256",
          "name": "tokenId",
          "type": "uint256"
        }
      ],
      "name": "safeTransferFrom",
      "outputs": [],
      "stateMutability": "nonpayable",
      "type": "function"
    },
    {
      "inputs": [
        {
          "internalType": "address",
          "name": "from",
          "type": "address"
        },
        {
          "internalType": "address",
          "name": "to",
          "type": "address"
        },
        {
          "internalType": "uint256",
          "name": "tokenId",
          "type": "uint256"
        },
        {
          "internalType": "bytes",
          "name": "_data",
          "type": "bytes"
        }
      ],
      "name": "safeTransferFrom",
      "outputs": [],
      "stateMutability": "nonpayable",
      "type": "function"
    },
    {
      "inputs": [
        {
          "internalType": "address",
          "name": "operator",
          "type": "address"
        },
        {
          "internalType": "bool",
          "name": "approved",
          "type": "bool"
        }
      ],
      "name": "setApprovalForAll",
      "outputs": [],
      "stateMutability": "nonpayable",
      "type": "function"
    },
    {
      "inputs": [],
      "name": "symbol",
      "outputs": [
        {
          "internalType": "string",
          "name": "",
          "type": "string"
        }
      ],
      "stateMutability": "view",
      "type": "function",
      "constant": true
    },
    {
      "inputs": [
        {
          "internalType": "uint256",
          "name": "index",
          "type": "uint256"
        }
      ],
      "name": "tokenByIndex",
      "outputs": [
        {
          "internalType": "uint256",
          "name": "",
          "type": "uint256"
        }
      ],
      "stateMutability": "view",
      "type": "function",
      "constant": true
    },
    {
      "inputs": [
        {
          "internalType": "address",
          "name": "owner",
          "type": "address"
        },
        {
          "internalType": "uint256",
          "name": "index",
          "type": "uint256"
        }
      ],
      "name": "tokenOfOwnerByIndex",
      "outputs": [
        {
          "internalType": "uint256",
          "name": "",
          "type": "uint256"
        }
      ],
      "stateMutability": "view",
      "type": "function",
      "constant": true
    },
    {
      "inputs": [
        {
          "internalType": "uint256",
          "name": "tokenId",
          "type": "uint256"
        }
      ],
      "name": "tokenURI",
      "outputs": [
        {
          "internalType": "string",
          "name": "",
          "type": "string"
        }
      ],
      "stateMutability": "view",
      "type": "function",
      "constant": true
    },
    {
      "inputs": [],
      "name": "totalSupply",
      "outputs": [
        {
          "internalType": "uint256",
          "name": "",
          "type": "uint256"
        }
      ],
      "stateMutability": "view",
      "type": "function",
      "constant": true
    },
    {
      "inputs": [
        {
          "internalType": "address",
          "name": "from",
          "type": "address"
        },
        {
          "internalType": "address",
          "name": "to",
          "type": "address"
        },
        {
          "internalType": "uint256",
          "name": "tokenId",
          "type": "uint256"
        }
      ],
      "name": "transferFrom",
      "outputs": [],
      "stateMutability": "nonpayable",
      "type": "function"
    },
    {
      "inputs": [
        {
          "internalType": "address",
          "name": "newOwner",
          "type": "address"
        }
      ],
      "name": "transferOwnership",
      "outputs": [],
      "stateMutability": "nonpayable",
      "type": "function"
    },
    {
      "inputs": [
        {
          "internalType": "address",
          "name": "to",
          "type": "address"
        },
        {
          "internalType": "uint256",
          "name": "tokenId",
          "type": "uint256"
        }
      ],
      "name": "safeMint",
      "outputs": [],
      "stateMutability": "nonpayable",
      "type": "function"
    },
    {
      "inputs": [
        {
          "internalType": "bytes4",
          "name": "interfaceId",
          "type": "bytes4"
        }
      ],
      "name": "supportsInterface",
      "outputs": [
        {
          "internalType": "bool",
          "name": "",
          "type": "bool"
        }
      ],
      "stateMutability": "view",
      "type": "function",
      "constant": true
    },
    {
      "inputs": [
        {
          "internalType": "string",
          "name": "_color",
          "type": "string"
        }
      ],
      "name": "mint",
      "outputs": [],
      "stateMutability": "nonpayable",
      "type": "function"
    }
  ],
  "bytecode": "0x60806040523480156200001157600080fd5b506040518060400160405280600581526020017f436f6c6f720000000000000000000000000000000000000000000000000000008152506040518060400160405280600581526020017f434f4c4f5200000000000000000000000000000000000000000000000000000081525081600090805190602001906200009692919062000171565b508060019080519060200190620000af92919062000171565b5050506000620000c46200016960201b60201c565b905080600a60006101000a81548173ffffffffffffffffffffffffffffffffffffffff021916908373ffffffffffffffffffffffffffffffffffffffff1602179055508073ffffffffffffffffffffffffffffffffffffffff16600073ffffffffffffffffffffffffffffffffffffffff167f8be0079c531659141344cd1fd0a4f28419497f9722a3daafe3b4186f6b6457e060405160405180910390a35062000286565b600033905090565b8280546200017f9062000221565b90600052602060002090601f016020900481019282620001a35760008555620001ef565b82601f10620001be57805160ff1916838001178555620001ef565b82800160010185558215620001ef579182015b82811115620001ee578251825591602001919060010190620001d1565b5b509050620001fe919062000202565b5090565b5b808211156200021d57600081600090555060010162000203565b5090565b600060028204905060018216806200023a57607f821691505b6020821081141562000251576200025062000257565b5b50919050565b7f4e487b7100000000000000000000000000000000000000000000000000000000600052602260045260246000fd5b6137a580620002966000396000f3fe608060405234801561001057600080fd5b50600436106101425760003560e01c8063715018a6116100b8578063b88d4fde1161007c578063b88d4fde14610375578063bd11f69d14610391578063c87b56dd146103c1578063d85d3d27146103f1578063e985e9c51461040d578063f2fde38b1461043d57610142565b8063715018a6146102f75780638da5cb5b1461030157806395d89b411461031f578063a14481941461033d578063a22cb4651461035957610142565b806323b872dd1161010a57806323b872dd146101ff5780632f745c591461021b57806342842e0e1461024b5780634f6ccce7146102675780636352211e1461029757806370a08231146102c757610142565b806301ffc9a71461014757806306fdde0314610177578063081812fc14610195578063095ea7b3146101c557806318160ddd146101e1575b600080fd5b610161600480360381019061015c919061279b565b610459565b60405161016e919061309d565b60405180910390f35b61017f61046b565b60405161018c91906130b8565b60405180910390f35b6101af60048036038101906101aa919061282e565b6104fd565b6040516101bc9190613036565b60405180910390f35b6101df60048036038101906101da919061275f565b610582565b005b6101e961069a565b6040516101f6919061333a565b60405180910390f35b61021960048036038101906102149190612659565b6106a7565b005b6102356004803603810190610230919061275f565b610707565b604051610242919061333a565b60405180910390f35b61026560048036038101906102609190612659565b6107ac565b005b610281600480360381019061027c919061282e565b6107cc565b60405161028e919061333a565b60405180910390f35b6102b160048036038101906102ac919061282e565b610863565b6040516102be9190613036565b60405180910390f35b6102e160048036038101906102dc91906125f4565b610915565b6040516102ee919061333a565b60405180910390f35b6102ff6109cd565b005b610309610b0a565b6040516103169190613036565b60405180910390f35b610327610b34565b60405161033491906130b8565b60405180910390f35b6103576004803603810190610352919061275f565b610bc6565b005b610373600480360381019061036e9190612723565b610c50565b005b61038f600480360381019061038a91906126a8565b610dd1565b005b6103ab60048036038101906103a6919061282e565b610e33565b6040516103b891906130b8565b60405180910390f35b6103db60048036038101906103d6919061282e565b610edf565b6040516103e891906130b8565b60405180910390f35b61040b600480360381019061040691906127ed565b610f86565b005b6104276004803603810190610422919061261d565b6110f9565b604051610434919061309d565b60405180910390f35b610457600480360381019061045291906125f4565b61118d565b005b600061046482611339565b9050919050565b60606000805461047a9061359a565b80601f01602080910402602001604051908101604052809291908181526020018280546104a69061359a565b80156104f35780601f106104c8576101008083540402835291602001916104f3565b820191906000526020600020905b8154815290600101906020018083116104d657829003601f168201915b5050505050905090565b6000610508826113b3565b610547576040517f08c379a000000000000000000000000000000000000000000000000000000000815260040161053e9061325a565b60405180910390fd5b6004600083815260200190815260200160002060009054906101000a900473ffffffffffffffffffffffffffffffffffffffff169050919050565b600061058d82610863565b90508073ffffffffffffffffffffffffffffffffffffffff168373ffffffffffffffffffffffffffffffffffffffff1614156105fe576040517f08c379a00000000000000000000000000000000000000000000000000000000081526004016105f5906132da565b60405180910390fd5b8073ffffffffffffffffffffffffffffffffffffffff1661061d61141f565b73ffffffffffffffffffffffffffffffffffffffff16148061064c575061064b8161064661141f565b6110f9565b5b61068b576040517f08c379a0000000000000000000000000000000000000000000000000000000008152600401610682906131da565b60405180910390fd5b6106958383611427565b505050565b6000600880549050905090565b6106b86106b261141f565b826114e0565b6106f7576040517f08c379a00000000000000000000000000000000000000000000000000000000081526004016106ee906132fa565b60405180910390fd5b6107028383836115be565b505050565b600061071283610915565b8210610753576040517f08c379a000000000000000000000000000000000000000000000000000000000815260040161074a906130da565b60405180910390fd5b600660008473ffffffffffffffffffffffffffffffffffffffff1673ffffffffffffffffffffffffffffffffffffffff168152602001908152602001600020600083815260200190815260200160002054905092915050565b6107c783838360405180602001604052806000815250610dd1565b505050565b60006107d661069a565b8210610817576040517f08c379a000000000000000000000000000000000000000000000000000000000815260040161080e9061331a565b60405180910390fd5b60088281548110610851577f4e487b7100000000000000000000000000000000000000000000000000000000600052603260045260246000fd5b90600052602060002001549050919050565b6000806002600084815260200190815260200160002060009054906101000a900473ffffffffffffffffffffffffffffffffffffffff169050600073ffffffffffffffffffffffffffffffffffffffff168173ffffffffffffffffffffffffffffffffffffffff16141561090c576040517f08c379a00000000000000000000000000000000000000000000000000000000081526004016109039061321a565b60405180910390fd5b80915050919050565b60008073ffffffffffffffffffffffffffffffffffffffff168273ffffffffffffffffffffffffffffffffffffffff161415610986576040517f08c379a000000000000000000000000000000000000000000000000000000000815260040161097d906131fa565b60405180910390fd5b600360008373ffffffffffffffffffffffffffffffffffffffff1673ffffffffffffffffffffffffffffffffffffffff168152602001908152602001600020549050919050565b6109d561141f565b73ffffffffffffffffffffffffffffffffffffffff166109f3610b0a565b73ffffffffffffffffffffffffffffffffffffffff1614610a49576040517f08c379a0000000000000000000000000000000000000000000000000000000008152600401610a409061327a565b60405180910390fd5b600073ffffffffffffffffffffffffffffffffffffffff16600a60009054906101000a900473ffffffffffffffffffffffffffffffffffffffff1673ffffffffffffffffffffffffffffffffffffffff167f8be0079c531659141344cd1fd0a4f28419497f9722a3daafe3b4186f6b6457e060405160405180910390a36000600a60006101000a81548173ffffffffffffffffffffffffffffffffffffffff021916908373ffffffffffffffffffffffffffffffffffffffff160217905550565b6000600a60009054906101000a900473ffffffffffffffffffffffffffffffffffffffff16905090565b606060018054610b439061359a565b80601f0160208091040260200160405190810160405280929190818152602001828054610b6f9061359a565b8015610bbc5780601f10610b9157610100808354040283529160200191610bbc565b820191906000526020600020905b815481529060010190602001808311610b9f57829003601f168201915b5050505050905090565b610bce61141f565b73ffffffffffffffffffffffffffffffffffffffff16610bec610b0a565b73ffffffffffffffffffffffffffffffffffffffff1614610c42576040517f08c379a0000000000000000000000000000000000000000000000000000000008152600401610c399061327a565b60405180910390fd5b610c4c828261181a565b5050565b610c5861141f565b73ffffffffffffffffffffffffffffffffffffffff168273ffffffffffffffffffffffffffffffffffffffff161415610cc6576040517f08c379a0000000000000000000000000000000000000000000000000000000008152600401610cbd9061319a565b60405180910390fd5b8060056000610cd361141f565b73ffffffffffffffffffffffffffffffffffffffff1673ffffffffffffffffffffffffffffffffffffffff16815260200190815260200160002060008473ffffffffffffffffffffffffffffffffffffffff1673ffffffffffffffffffffffffffffffffffffffff16815260200190815260200160002060006101000a81548160ff0219169083151502179055508173ffffffffffffffffffffffffffffffffffffffff16610d8061141f565b73ffffffffffffffffffffffffffffffffffffffff167f17307eab39ab6107e8899845ad3d59bd9653f200f220920489ca2b5937696c3183604051610dc5919061309d565b60405180910390a35050565b610de2610ddc61141f565b836114e0565b610e21576040517f08c379a0000000000000000000000000000000000000000000000000000000008152600401610e18906132fa565b60405180910390fd5b610e2d84848484611838565b50505050565b600b8181548110610e4357600080fd5b906000526020600020016000915090508054610e5e9061359a565b80601f0160208091040260200160405190810160405280929190818152602001828054610e8a9061359a565b8015610ed75780601f10610eac57610100808354040283529160200191610ed7565b820191906000526020600020905b815481529060010190602001808311610eba57829003601f168201915b505050505081565b6060610eea826113b3565b610f29576040517f08c379a0000000000000000000000000000000000000000000000000000000008152600401610f20906132ba565b60405180910390fd5b6000610f33611894565b90506000815111610f535760405180602001604052806000815250610f7e565b80610f5d846118ab565b604051602001610f6e929190613012565b6040516020818303038152906040525b915050919050565b610f8e61141f565b73ffffffffffffffffffffffffffffffffffffffff16610fac610b0a565b73ffffffffffffffffffffffffffffffffffffffff1614611002576040517f08c379a0000000000000000000000000000000000000000000000000000000008152600401610ff99061327a565b60405180910390fd5b600c816040516110129190612ffb565b908152602001604051809103902060009054906101000a900460ff161561106e576040517f08c379a00000000000000000000000000000000000000000000000000000000081526004016110659061315a565b60405180910390fd5b600b819080600181540180825580915050600190039060005260206000200160009091909190915090805190602001906110a9929190612418565b506000600b8054905090506110be3382610bc6565b6001600c836040516110d09190612ffb565b908152602001604051809103902060006101000a81548160ff0219169083151502179055505050565b6000600560008473ffffffffffffffffffffffffffffffffffffffff1673ffffffffffffffffffffffffffffffffffffffff16815260200190815260200160002060008373ffffffffffffffffffffffffffffffffffffffff1673ffffffffffffffffffffffffffffffffffffffff16815260200190815260200160002060009054906101000a900460ff16905092915050565b61119561141f565b73ffffffffffffffffffffffffffffffffffffffff166111b3610b0a565b73ffffffffffffffffffffffffffffffffffffffff1614611209576040517f08c379a00000000000000000000000000000000000000000000000000000000081526004016112009061327a565b60405180910390fd5b600073ffffffffffffffffffffffffffffffffffffffff168173ffffffffffffffffffffffffffffffffffffffff161415611279576040517f08c379a00000000000000000000000000000000000000000000000000000000081526004016112709061311a565b60405180910390fd5b8073ffffffffffffffffffffffffffffffffffffffff16600a60009054906101000a900473ffffffffffffffffffffffffffffffffffffffff1673ffffffffffffffffffffffffffffffffffffffff167f8be0079c531659141344cd1fd0a4f28419497f9722a3daafe3b4186f6b6457e060405160405180910390a380600a60006101000a81548173ffffffffffffffffffffffffffffffffffffffff021916908373ffffffffffffffffffffffffffffffffffffffff16021790555050565b60007f780e9d63000000000000000000000000000000000000000000000000000000007bffffffffffffffffffffffffffffffffffffffffffffffffffffffff1916827bffffffffffffffffffffffffffffffffffffffffffffffffffffffff191614806113ac57506113ab82611a58565b5b9050919050565b60008073ffffffffffffffffffffffffffffffffffffffff166002600084815260200190815260200160002060009054906101000a900473ffffffffffffffffffffffffffffffffffffffff1673ffffffffffffffffffffffffffffffffffffffff1614159050919050565b600033905090565b816004600083815260200190815260200160002060006101000a81548173ffffffffffffffffffffffffffffffffffffffff021916908373ffffffffffffffffffffffffffffffffffffffff160217905550808273ffffffffffffffffffffffffffffffffffffffff1661149a83610863565b73ffffffffffffffffffffffffffffffffffffffff167f8c5be1e5ebec7d5bd14f71427d1e84f3dd0314c0f7b2291e5b200ac8c7c3b92560405160405180910390a45050565b60006114eb826113b3565b61152a576040517f08c379a0000000000000000000000000000000000000000000000000000000008152600401611521906131ba565b60405180910390fd5b600061153583610863565b90508073ffffffffffffffffffffffffffffffffffffffff168473ffffffffffffffffffffffffffffffffffffffff1614806115a457508373ffffffffffffffffffffffffffffffffffffffff1661158c846104fd565b73ffffffffffffffffffffffffffffffffffffffff16145b806115b557506115b481856110f9565b5b91505092915050565b8273ffffffffffffffffffffffffffffffffffffffff166115de82610863565b73ffffffffffffffffffffffffffffffffffffffff1614611634576040517f08c379a000000000000000000000000000000000000000000000000000000000815260040161162b9061329a565b60405180910390fd5b600073ffffffffffffffffffffffffffffffffffffffff168273ffffffffffffffffffffffffffffffffffffffff1614156116a4576040517f08c379a000000000000000000000000000000000000000000000000000000000815260040161169b9061317a565b60405180910390fd5b6116af838383611b3a565b6116ba600082611427565b6001600360008573ffffffffffffffffffffffffffffffffffffffff1673ffffffffffffffffffffffffffffffffffffffff168152602001908152602001600020600082825461170a91906134b0565b925050819055506001600360008473ffffffffffffffffffffffffffffffffffffffff1673ffffffffffffffffffffffffffffffffffffffff16815260200190815260200160002060008282546117619190613429565b92505081905550816002600083815260200190815260200160002060006101000a81548173ffffffffffffffffffffffffffffffffffffffff021916908373ffffffffffffffffffffffffffffffffffffffff160217905550808273ffffffffffffffffffffffffffffffffffffffff168473ffffffffffffffffffffffffffffffffffffffff167fddf252ad1be2c89b69c2b068fc378daa952ba7f163c4a11628f55a4df523b3ef60405160405180910390a4505050565b611834828260405180602001604052806000815250611b4a565b5050565b6118438484846115be565b61184f84848484611ba5565b61188e576040517f08c379a0000000000000000000000000000000000000000000000000000000008152600401611885906130fa565b60405180910390fd5b50505050565b606060405180602001604052806000815250905090565b606060008214156118f3576040518060400160405280600181526020017f30000000000000000000000000000000000000000000000000000000000000008152509050611a53565b600082905060005b6000821461192557808061190e906135cc565b915050600a8261191e919061347f565b91506118fb565b60008167ffffffffffffffff811115611967577f4e487b7100000000000000000000000000000000000000000000000000000000600052604160045260246000fd5b6040519080825280601f01601f1916602001820160405280156119995781602001600182028036833780820191505090505b5090505b60008514611a4c576001826119b291906134b0565b9150600a856119c19190613615565b60306119cd9190613429565b60f81b818381518110611a09577f4e487b7100000000000000000000000000000000000000000000000000000000600052603260045260246000fd5b60200101907effffffffffffffffffffffffffffffffffffffffffffffffffffffffffffff1916908160001a905350600a85611a45919061347f565b945061199d565b8093505050505b919050565b60007f80ac58cd000000000000000000000000000000000000000000000000000000007bffffffffffffffffffffffffffffffffffffffffffffffffffffffff1916827bffffffffffffffffffffffffffffffffffffffffffffffffffffffff19161480611b2357507f5b5e139f000000000000000000000000000000000000000000000000000000007bffffffffffffffffffffffffffffffffffffffffffffffffffffffff1916827bffffffffffffffffffffffffffffffffffffffffffffffffffffffff1916145b80611b335750611b3282611d3c565b5b9050919050565b611b45838383611da6565b505050565b611b548383611eba565b611b616000848484611ba5565b611ba0576040517f08c379a0000000000000000000000000000000000000000000000000000000008152600401611b97906130fa565b60405180910390fd5b505050565b6000611bc68473ffffffffffffffffffffffffffffffffffffffff16612088565b15611d2f578373ffffffffffffffffffffffffffffffffffffffff1663150b7a02611bef61141f565b8786866040518563ffffffff1660e01b8152600401611c119493929190613051565b602060405180830381600087803b158015611c2b57600080fd5b505af1925050508015611c5c57506040513d601f19601f82011682018060405250810190611c5991906127c4565b60015b611cdf573d8060008114611c8c576040519150601f19603f3d011682016040523d82523d6000602084013e611c91565b606091505b50600081511415611cd7576040517f08c379a0000000000000000000000000000000000000000000000000000000008152600401611cce906130fa565b60405180910390fd5b805181602001fd5b63150b7a0260e01b7bffffffffffffffffffffffffffffffffffffffffffffffffffffffff1916817bffffffffffffffffffffffffffffffffffffffffffffffffffffffff191614915050611d34565b600190505b949350505050565b60007f01ffc9a7000000000000000000000000000000000000000000000000000000007bffffffffffffffffffffffffffffffffffffffffffffffffffffffff1916827bffffffffffffffffffffffffffffffffffffffffffffffffffffffff1916149050919050565b611db183838361209b565b600073ffffffffffffffffffffffffffffffffffffffff168373ffffffffffffffffffffffffffffffffffffffff161415611df457611def816120a0565b611e33565b8173ffffffffffffffffffffffffffffffffffffffff168373ffffffffffffffffffffffffffffffffffffffff1614611e3257611e3183826120e9565b5b5b600073ffffffffffffffffffffffffffffffffffffffff168273ffffffffffffffffffffffffffffffffffffffff161415611e7657611e7181612256565b611eb5565b8273ffffffffffffffffffffffffffffffffffffffff168273ffffffffffffffffffffffffffffffffffffffff1614611eb457611eb38282612399565b5b5b505050565b600073ffffffffffffffffffffffffffffffffffffffff168273ffffffffffffffffffffffffffffffffffffffff161415611f2a576040517f08c379a0000000000000000000000000000000000000000000000000000000008152600401611f219061323a565b60405180910390fd5b611f33816113b3565b15611f73576040517f08c379a0000000000000000000000000000000000000000000000000000000008152600401611f6a9061313a565b60405180910390fd5b611f7f60008383611b3a565b6001600360008473ffffffffffffffffffffffffffffffffffffffff1673ffffffffffffffffffffffffffffffffffffffff1681526020019081526020016000206000828254611fcf9190613429565b92505081905550816002600083815260200190815260200160002060006101000a81548173ffffffffffffffffffffffffffffffffffffffff021916908373ffffffffffffffffffffffffffffffffffffffff160217905550808273ffffffffffffffffffffffffffffffffffffffff16600073ffffffffffffffffffffffffffffffffffffffff167fddf252ad1be2c89b69c2b068fc378daa952ba7f163c4a11628f55a4df523b3ef60405160405180910390a45050565b600080823b905060008111915050919050565b505050565b6008805490506009600083815260200190815260200160002081905550600881908060018154018082558091505060019003906000526020600020016000909190919091505550565b600060016120f684610915565b61210091906134b0565b90506000600760008481526020019081526020016000205490508181146121e5576000600660008673ffffffffffffffffffffffffffffffffffffffff1673ffffffffffffffffffffffffffffffffffffffff168152602001908152602001600020600084815260200190815260200160002054905080600660008773ffffffffffffffffffffffffffffffffffffffff1673ffffffffffffffffffffffffffffffffffffffff168152602001908152602001600020600084815260200190815260200160002081905550816007600083815260200190815260200160002081905550505b6007600084815260200190815260200160002060009055600660008573ffffffffffffffffffffffffffffffffffffffff1673ffffffffffffffffffffffffffffffffffffffff16815260200190815260200160002060008381526020019081526020016000206000905550505050565b6000600160088054905061226a91906134b0565b90506000600960008481526020019081526020016000205490506000600883815481106122c0577f4e487b7100000000000000000000000000000000000000000000000000000000600052603260045260246000fd5b906000526020600020015490508060088381548110612308577f4e487b7100000000000000000000000000000000000000000000000000000000600052603260045260246000fd5b90600052602060002001819055508160096000838152602001908152602001600020819055506009600085815260200190815260200160002060009055600880548061237d577f4e487b7100000000000000000000000000000000000000000000000000000000600052603160045260246000fd5b6001900381819060005260206000200160009055905550505050565b60006123a483610915565b905081600660008573ffffffffffffffffffffffffffffffffffffffff1673ffffffffffffffffffffffffffffffffffffffff168152602001908152602001600020600083815260200190815260200160002081905550806007600084815260200190815260200160002081905550505050565b8280546124249061359a565b90600052602060002090601f016020900481019282612446576000855561248d565b82601f1061245f57805160ff191683800117855561248d565b8280016001018555821561248d579182015b8281111561248c578251825591602001919060010190612471565b5b50905061249a919061249e565b5090565b5b808211156124b757600081600090555060010161249f565b5090565b60006124ce6124c984613386565b613355565b9050828152602081018484840111156124e657600080fd5b6124f1848285613558565b509392505050565b600061250c612507846133b6565b613355565b90508281526020810184848401111561252457600080fd5b61252f848285613558565b509392505050565b60008135905061254681613713565b92915050565b60008135905061255b8161372a565b92915050565b60008135905061257081613741565b92915050565b60008151905061258581613741565b92915050565b600082601f83011261259c57600080fd5b81356125ac8482602086016124bb565b91505092915050565b600082601f8301126125c657600080fd5b81356125d68482602086016124f9565b91505092915050565b6000813590506125ee81613758565b92915050565b60006020828403121561260657600080fd5b600061261484828501612537565b91505092915050565b6000806040838503121561263057600080fd5b600061263e85828601612537565b925050602061264f85828601612537565b9150509250929050565b60008060006060848603121561266e57600080fd5b600061267c86828701612537565b935050602061268d86828701612537565b925050604061269e868287016125df565b9150509250925092565b600080600080608085870312156126be57600080fd5b60006126cc87828801612537565b94505060206126dd87828801612537565b93505060406126ee878288016125df565b925050606085013567ffffffffffffffff81111561270b57600080fd5b6127178782880161258b565b91505092959194509250565b6000806040838503121561273657600080fd5b600061274485828601612537565b92505060206127558582860161254c565b9150509250929050565b6000806040838503121561277257600080fd5b600061278085828601612537565b9250506020612791858286016125df565b9150509250929050565b6000602082840312156127ad57600080fd5b60006127bb84828501612561565b91505092915050565b6000602082840312156127d657600080fd5b60006127e484828501612576565b91505092915050565b6000602082840312156127ff57600080fd5b600082013567ffffffffffffffff81111561281957600080fd5b612825848285016125b5565b91505092915050565b60006020828403121561284057600080fd5b600061284e848285016125df565b91505092915050565b612860816134e4565b82525050565b61286f816134f6565b82525050565b6000612880826133e6565b61288a81856133fc565b935061289a818560208601613567565b6128a381613702565b840191505092915050565b60006128b9826133f1565b6128c3818561340d565b93506128d3818560208601613567565b6128dc81613702565b840191505092915050565b60006128f2826133f1565b6128fc818561341e565b935061290c818560208601613567565b80840191505092915050565b6000612925602b8361340d565b91507f455243373231456e756d657261626c653a206f776e657220696e646578206f7560008301527f74206f6620626f756e64730000000000000000000000000000000000000000006020830152604082019050919050565b600061298b60328361340d565b91507f4552433732313a207472616e7366657220746f206e6f6e20455243373231526560008301527f63656976657220696d706c656d656e74657200000000000000000000000000006020830152604082019050919050565b60006129f160268361340d565b91507f4f776e61626c653a206e6577206f776e657220697320746865207a65726f206160008301527f64647265737300000000000000000000000000000000000000000000000000006020830152604082019050919050565b6000612a57601c8361340d565b91507f4552433732313a20746f6b656e20616c7265616479206d696e746564000000006000830152602082019050919050565b6000612a9760198361340d565b91507f5468697320746f6b656e2065786973747320616c7265616479000000000000006000830152602082019050919050565b6000612ad760248361340d565b91507f4552433732313a207472616e7366657220746f20746865207a65726f2061646460008301527f72657373000000000000000000000000000000000000000000000000000000006020830152604082019050919050565b6000612b3d60198361340d565b91507f4552433732313a20617070726f766520746f2063616c6c6572000000000000006000830152602082019050919050565b6000612b7d602c8361340d565b91507f4552433732313a206f70657261746f7220717565727920666f72206e6f6e657860008301527f697374656e7420746f6b656e00000000000000000000000000000000000000006020830152604082019050919050565b6000612be360388361340d565b91507f4552433732313a20617070726f76652063616c6c6572206973206e6f74206f7760008301527f6e6572206e6f7220617070726f76656420666f7220616c6c00000000000000006020830152604082019050919050565b6000612c49602a8361340d565b91507f4552433732313a2062616c616e636520717565727920666f7220746865207a6560008301527f726f2061646472657373000000000000000000000000000000000000000000006020830152604082019050919050565b6000612caf60298361340d565b91507f4552433732313a206f776e657220717565727920666f72206e6f6e657869737460008301527f656e7420746f6b656e00000000000000000000000000000000000000000000006020830152604082019050919050565b6000612d1560208361340d565b91507f4552433732313a206d696e7420746f20746865207a65726f20616464726573736000830152602082019050919050565b6000612d55602c8361340d565b91507f4552433732313a20617070726f76656420717565727920666f72206e6f6e657860008301527f697374656e7420746f6b656e00000000000000000000000000000000000000006020830152604082019050919050565b6000612dbb60208361340d565b91507f4f776e61626c653a2063616c6c6572206973206e6f7420746865206f776e65726000830152602082019050919050565b6000612dfb60298361340d565b91507f4552433732313a207472616e73666572206f6620746f6b656e2074686174206960008301527f73206e6f74206f776e00000000000000000000000000000000000000000000006020830152604082019050919050565b6000612e61602f8361340d565b91507f4552433732314d657461646174613a2055524920717565727920666f72206e6f60008301527f6e6578697374656e7420746f6b656e00000000000000000000000000000000006020830152604082019050919050565b6000612ec760218361340d565b91507f4552433732313a20617070726f76616c20746f2063757272656e74206f776e6560008301527f72000000000000000000000000000000000000000000000000000000000000006020830152604082019050919050565b6000612f2d60318361340d565b91507f4552433732313a207472616e736665722063616c6c6572206973206e6f74206f60008301527f776e6572206e6f7220617070726f7665640000000000000000000000000000006020830152604082019050919050565b6000612f93602c8361340d565b91507f455243373231456e756d657261626c653a20676c6f62616c20696e646578206f60008301527f7574206f6620626f756e647300000000000000000000000000000000000000006020830152604082019050919050565b612ff58161354e565b82525050565b600061300782846128e7565b915081905092915050565b600061301e82856128e7565b915061302a82846128e7565b91508190509392505050565b600060208201905061304b6000830184612857565b92915050565b60006080820190506130666000830187612857565b6130736020830186612857565b6130806040830185612fec565b81810360608301526130928184612875565b905095945050505050565b60006020820190506130b26000830184612866565b92915050565b600060208201905081810360008301526130d281846128ae565b905092915050565b600060208201905081810360008301526130f381612918565b9050919050565b600060208201905081810360008301526131138161297e565b9050919050565b60006020820190508181036000830152613133816129e4565b9050919050565b6000602082019050818103600083015261315381612a4a565b9050919050565b6000602082019050818103600083015261317381612a8a565b9050919050565b6000602082019050818103600083015261319381612aca565b9050919050565b600060208201905081810360008301526131b381612b30565b9050919050565b600060208201905081810360008301526131d381612b70565b9050919050565b600060208201905081810360008301526131f381612bd6565b9050919050565b6000602082019050818103600083015261321381612c3c565b9050919050565b6000602082019050818103600083015261323381612ca2565b9050919050565b6000602082019050818103600083015261325381612d08565b9050919050565b6000602082019050818103600083015261327381612d48565b9050919050565b6000602082019050818103600083015261329381612dae565b9050919050565b600060208201905081810360008301526132b381612dee565b9050919050565b600060208201905081810360008301526132d381612e54565b9050919050565b600060208201905081810360008301526132f381612eba565b9050919050565b6000602082019050818103600083015261331381612f20565b9050919050565b6000602082019050818103600083015261333381612f86565b9050919050565b600060208201905061334f6000830184612fec565b92915050565b6000604051905081810181811067ffffffffffffffff8211171561337c5761337b6136d3565b5b8060405250919050565b600067ffffffffffffffff8211156133a1576133a06136d3565b5b601f19601f8301169050602081019050919050565b600067ffffffffffffffff8211156133d1576133d06136d3565b5b601f19601f8301169050602081019050919050565b600081519050919050565b600081519050919050565b600082825260208201905092915050565b600082825260208201905092915050565b600081905092915050565b60006134348261354e565b915061343f8361354e565b9250827fffffffffffffffffffffffffffffffffffffffffffffffffffffffffffffffff0382111561347457613473613646565b5b828201905092915050565b600061348a8261354e565b91506134958361354e565b9250826134a5576134a4613675565b5b828204905092915050565b60006134bb8261354e565b91506134c68361354e565b9250828210156134d9576134d8613646565b5b828203905092915050565b60006134ef8261352e565b9050919050565b60008115159050919050565b60007fffffffff0000000000000000000000000000000000000000000000000000000082169050919050565b600073ffffffffffffffffffffffffffffffffffffffff82169050919050565b6000819050919050565b82818337600083830152505050565b60005b8381101561358557808201518184015260208101905061356a565b83811115613594576000848401525b50505050565b600060028204905060018216806135b257607f821691505b602082108114156135c6576135c56136a4565b5b50919050565b60006135d78261354e565b91507fffffffffffffffffffffffffffffffffffffffffffffffffffffffffffffffff82141561360a57613609613646565b5b600182019050919050565b60006136208261354e565b915061362b8361354e565b92508261363b5761363a613675565b5b828206905092915050565b7f4e487b7100000000000000000000000000000000000000000000000000000000600052601160045260246000fd5b7f4e487b7100000000000000000000000000000000000000000000000000000000600052601260045260246000fd5b7f4e487b7100000000000000000000000000000000000000000000000000000000600052602260045260246000fd5b7f4e487b7100000000000000000000000000000000000000000000000000000000600052604160045260246000fd5b6000601f19601f8301169050919050565b61371c816134e4565b811461372757600080fd5b50565b613733816134f6565b811461373e57600080fd5b50565b61374a81613502565b811461375557600080fd5b50565b6137618161354e565b811461376c57600080fd5b5056fea2646970667358221220f1015d821e3997cec2d9d05a0334f2d0b1ca4fa7d51ca7189b74ea738cf9341864736f6c63430008000033",
  "immutableReferences": {},
  "source": "// SPDX-License-Identifier: MIT\r\npragma solidity >=0.5.0 <0.9.0;\r\n\r\nimport \"@openzeppelin/contracts/token/ERC721/ERC721.sol\";\r\nimport \"@openzeppelin/contracts/token/ERC721/extensions/ERC721Enumerable.sol\";\r\nimport \"@openzeppelin/contracts/access/Ownable.sol\";\r\n\r\ncontract Color is ERC721, ERC721Enumerable, Ownable {\r\n    string[] public colors;\r\n    mapping(string => bool) _colorExists;\r\n\r\n    constructor() ERC721(\"Color\", \"COLOR\") {\r\n\r\n    }\r\n\r\n    function safeMint(address to, uint256 tokenId) public onlyOwner {\r\n        _safeMint(to, tokenId);\r\n    }\r\n\r\n    function _beforeTokenTransfer(address from, address to, uint256 tokenId)\r\n        internal\r\n        override(ERC721, ERC721Enumerable)\r\n    {\r\n        super._beforeTokenTransfer(from, to, tokenId);\r\n    }\r\n\r\n    function supportsInterface(bytes4 interfaceId)\r\n        public\r\n        view\r\n        override(ERC721, ERC721Enumerable)\r\n        returns (bool)\r\n    {\r\n        return super.supportsInterface(interfaceId);\r\n    }\r\n\r\n    function mint(string memory _color) public onlyOwner{\r\n        // require unique token\r\n        require(!_colorExists[_color], \"This token exists already\");\r\n        // mint token\r\n        colors.push(_color);        \r\n        uint _id = colors.length;\r\n\r\n        safeMint(msg.sender, _id);\r\n        // set flag as minted\r\n        _colorExists[_color] = true;\r\n    }\r\n}\r\n",
  "sourcePath": "F:/workBlockchain/demo/nft-color/src/contracts/Color.sol",
  "compiler": {
    "name": "solc",
    "version": "0.8.0+commit.c7dfd78e.Emscripten.clang"
  },
  "schemaVersion": "3.4.0",
  "updatedAt": "2021-05-04T21:32:48.018Z",
  "networkType": "ethereum",
  "devdoc": {
    "kind": "dev",
    "methods": {
      "approve(address,uint256)": {
        "details": "See {IERC721-approve}."
      },
      "balanceOf(address)": {
        "details": "See {IERC721-balanceOf}."
      },
      "getApproved(uint256)": {
        "details": "See {IERC721-getApproved}."
      },
      "isApprovedForAll(address,address)": {
        "details": "See {IERC721-isApprovedForAll}."
      },
      "name()": {
        "details": "See {IERC721Metadata-name}."
      },
      "owner()": {
        "details": "Returns the address of the current owner."
      },
      "ownerOf(uint256)": {
        "details": "See {IERC721-ownerOf}."
      },
      "renounceOwnership()": {
        "details": "Leaves the contract without owner. It will not be possible to call `onlyOwner` functions anymore. Can only be called by the current owner. NOTE: Renouncing ownership will leave the contract without an owner, thereby removing any functionality that is only available to the owner."
      },
      "safeTransferFrom(address,address,uint256)": {
        "details": "See {IERC721-safeTransferFrom}."
      },
      "safeTransferFrom(address,address,uint256,bytes)": {
        "details": "See {IERC721-safeTransferFrom}."
      },
      "setApprovalForAll(address,bool)": {
        "details": "See {IERC721-setApprovalForAll}."
      },
      "symbol()": {
        "details": "See {IERC721Metadata-symbol}."
      },
      "tokenByIndex(uint256)": {
        "details": "See {IERC721Enumerable-tokenByIndex}."
      },
      "tokenOfOwnerByIndex(address,uint256)": {
        "details": "See {IERC721Enumerable-tokenOfOwnerByIndex}."
      },
      "tokenURI(uint256)": {
        "details": "See {IERC721Metadata-tokenURI}."
      },
      "totalSupply()": {
        "details": "See {IERC721Enumerable-totalSupply}."
      },
      "transferFrom(address,address,uint256)": {
        "details": "See {IERC721-transferFrom}."
      },
      "transferOwnership(address)": {
        "details": "Transfers ownership of the contract to a new account (`newOwner`). Can only be called by the current owner."
      }
    },
    "version": 1
  },
  "userdoc": {
    "kind": "user",
    "methods": {},
    "version": 1
  }
}